:020000040800F2
:10000000F015002001010008F5320008FD1E00086F
:10001000F13200086D010008813500080000000081
:100020000000000000000000000000002533000870
:10003000AD01000800000000F93200082733000875
:100040001B0100081B0100081B0100081B01000820
:100050001B0100081B0100081B0100081B01000810
:100060001B0100081B0100081B0100081B01000800
:100070001B0100081B0100081B0100081B010008F0
:10008000710100081B0100081B0100081B0100088A
:100090001B0100081B0100081B0100081B010008D0
:1000A0001B0100081B0100081B0100081B010008C0
:1000B000993300081B01000800000000011F000820
:1000C0001B01000800000000000000001B010008E8
:1000D000000000001B0100081B01000800000000D8
:1000E0001B0100081B0100081B010008DFF80CD0F1
:1000F00000F02AF8004800472D360008F0150020CF
:100100000648804706480047FEE7FEE7FEE7FEE7B1
:10011000FEE7FEE7FEE7FEE7FEE7FEE795330008B1
:10012000ED000008D2B201E000F8012B491EFBD21D
:1001300070470022F6E710B513460A4604461946F2
:10014000FFF7F0FF204610BD064C074D06E0E068C3
:1001500040F0010394E8070098471034AC42F6D30E
:10016000FFF7C8FF404400086044000800BFFEE7F6
:1001700010B5024800F07AF810BD0000A000002081
:1001800030B590F840500124AC40C56B6C600468F9
:1001900063604468102C04D10468A2600468E160C4
:1001A00003E00468A1600468E26030BD704772B685
:1001B00000BFFEE770B50446002594F82100022830
:1001C00003D00420A063012548E02068006820F0E7
:1001D0000E00216808602068006820F00100216896
:1001E00008601F492068884201D1012026E01C498F
:1001F00014312068884201D110201FE018492831AD
:100200002068884201D1801518E015493C312068EA
:10021000884201D1801411E0114950312068884290
:1002200002D14FF4803009E00D49643120688842E2
:1002300002D14FF4801001E04FF080700849083976
:100240004860012084F8210000BF002084F82000CD
:1002500000BF606B10B12046616B8847284670BDB7
:1002600008000240014691F82100704770B504462D
:10027000E06B05682068066894F840100420884008
:100280002840002846D006F00400002842D020680C
:10029000006800F0200028B92068006820F0040001
:1002A0002168086057492068884201D1042027E06E
:1002B000544914312068884201D1402020E051493E
:1002C00028312068884201D1001519E04D493C31A0
:1002D0002068884202D14FF4804011E049495031F2
:1002E0002068884202D14FF4802009E045496431FA
:1002F0002068884202D14FF4800001E04FF0806016
:10030000404908394860E06A00287AD02046E16A0E
:10031000884776E094F84010022088402840A0B337
:1003200006F0020088B32068006800F0200040B9A1
:100330002068006820F00A0021680860012084F825
:10034000210030492068884201D1022028E02D494F
:1003500014312068884201D1202021E02949283128
:100360002068884201D140151AE026493C312068B6
:10037000884202D14FF4005012E0224950312068E7
:10038000884203D14FF400300AE017E01D49643180
:100390002068884202D14FF4001001E04FF0007055
:1003A00018490839486000BF002084F8200000BFC9
:1003B000A06A30B32046A16A884722E094F8401032
:1003C000082088402840E0B106F00800C8B1206845
:1003D000006820F00E002168086094F840100120A9
:1003E0008840E16B48600120A06384F8210000BFD1
:1003F000002084F8200000BF206B10B12046216B44
:10040000884770BD080002400146002209B901205A
:100410007047164B0868C01A1423B0FBF3F0800035
:10042000086412480838C863022081F8210008686F
:10043000026843F6F0708243D1E901031843CB68A8
:1004400018430B6918434B6918438B691843CB69F0
:10045000184302430868026000208863012081F885
:100460002100002081F8200000BFD1E708000240F1
:100470002DE9F04104460D4616461F464FF0000890
:1004800000BF94F82000012802D10220BDE8F081CD
:10049000012084F8200000BF94F8210001282CD10D
:1004A000022084F821000020A0632068006820F06A
:1004B0000100216808603B46324629462046FFF786
:1004C0005FFEE06A30B12068006840F00E002168ED
:1004D00008600BE02068006820F0040021680860D4
:1004E0002068006840F00A00216808602068006801
:1004F00040F001002168086006E000BF002084F899
:10050000200000BF4FF002084046BFE770B5044628
:1005100000F096F906462546681C10B1044800789C
:10052000054400BF00F08CF9801BA842FAD370BDCF
:10053000080000202DE9F84703460022944666E1B2
:100540004FF0010808FA02F4D1F8008008EA04002C
:10055000A0427DD1DFF8CCA2D1F80480A8EB0A0933
:10056000D0453AD014DCB8F1030F50D009DCB8F113
:10057000000F31D0B8F1010F1CD0B8F1020F49D1F2
:1005800020E0B8F1110F18D0B8F1120F42D11EE0DF
:10059000B9F5881F25D006DCB9F5803F20D0B9F524
:1005A000801F37D11AE0B9F5001F18D0B9F5041F24
:1005B00030D117E0D1F80CC02DE0D1F80C8008F153
:1005C000040C28E0D1F80C8008F1080C23E0D1F8E5
:1005D0000C8008F10C0C1EE000BF00BF00BF00BF84
:1005E00000BF00BFD1F80880B8F1000F02D14FF072
:1005F000040C0BE0D1F80880B8F1010F03D14FF0E3
:10060000080C1C6102E04FF0080C5C6103E04FF045
:10061000000C00E000BF00BFFF2801D8984601E0B1
:1006200003F104084646FF2802D84FEA820803E097
:10063000A2F108084FEA88084746D6F800804FF034
:100640000F0909FA07F928EA09080CFA07F900E086
:1006500085E048EA0908C6F80080D1F8048008F06F
:100660008058B8F1805F7AD100BFDFF8BC81D8F83C
:10067000188048F00108DFF8B091C9F81880C84622
:10068000D8F8188008F00108CDF8008000BF00BF3E
:100690004FEAB9384FEA920958F829504FEA827860
:1006A0004FEA18794FF00F0808FA09F825EA08050B
:1006B000DFF87881434502D14FF000080FE0DFF802
:1006C0007081434502D14FF0010808E0DFF86481F2
:1006D000434502D14FF0020801E04FF003084FEA12
:1006E00082794FEA197908FA09F848EA0505DFF82E
:1006F00048814FEA920948F82950D1F8048008F45B
:100700008038B8F5803F0AD1DFF83081D8F8008012
:1007100048EA0008DFF82491C9F8008009E0DFF812
:100720001C81D8F8008028EA0008DFF81091C9F889
:100730000080D1F8048008F40038B8F5003F0FD1EC
:10074000DFF8F88008F10408D8F8008048EA0008CB
:10075000DFF8E89009F10409C9F800800EE055E0DF
:10076000DFF8D88008F10408D8F8008028EA0008EB
:10077000DFF8C89009F10409C9F80080D1F80480B5
:1007800008F48018B8F5801F0ED1DFF8B08008F1AA
:100790000808D8F8008048EA0008DFF8A09009F1BE
:1007A0000809C9F800800DE0DFF8908008F108081A
:1007B000D8F8008028EA0008DFF8809009F10809DD
:1007C000C9F80080D1F8048008F40018B8F5001FBB
:1007D0000ED1DFF8688008F10C08D8F8008048EAEC
:1007E0000008DFF8589009F10C09C9F800800DE005
:1007F000DFF8488008F10C08D8F8008028EA0008E3
:10080000DFF8389009F10C09C9F80080521CD1F8C2
:10081000008028FA02F8B8F1000F7FF491AEBDE82D
:10082000F88700000000111000100240000801408D
:10083000000C01400010014008000140000401408C
:1008400001480068704700000000002070477047B2
:100850002DE9F04705464FF0000928684668D5F8AD
:100860002CA095F83E7095F83D80102F01D0402FB8
:1008700075D12868D0F818902868446904F0010000
:1008800060B9BAF52A0F02D0BAF12A4F01D101207E
:1008900000E00020012801D1BDE8F08704F001004C
:1008A00048B1C6F3402030B1284601F031FB28465C
:1008B00002F07EF8B7E0C4F3C00030B1C6F34020C8
:1008C00018B1284601F01FFFADE0C4F3400030B17D
:1008D000C6F3402018B1284601F02AFFA3E0C9F36F
:1008E000800040B32868406800F40060B0F5006FF5
:1008F000E0D0C4F3C01048B1C6F3802030B1C4F3D7
:10090000800018B9284601F092FE8CE0C4F3800004
:100910000028CFD0C6F340200028CBD0B8F1210F5B
:1009200003D1284601F033FE7DE0402F7BD12846DD
:1009300002F08DF877E02868406800F40060B0F5B8
:10094000006F70D0C4F3801050B1C6F3802038B16E
:10095000C4F3800020B9284601F0A8FD63E00BE055
:10096000C4F3800000285ED0C6F3402000285AD08F
:10097000284601F008FD56E0286C10B1286844694B
:1009800004E02868D0F8189028684469C4F340004F
:1009900060B1C6F3402048B1286C10B12868D0F887
:1009A00018904946284602F081F93CE0C4F3001053
:1009B00030B1C6F3402018B1284602F0AFF932E05A
:1009C000B8F1210F02D0B8F1290F16D1C4F3C0102D
:1009D00048B1C6F3802030B1C4F3800018B928466E
:1009E00002F041F91FE0C4F38000E0B1C6F34020FB
:1009F000C8B1284602F02AF915E0C4F3801048B1C6
:100A0000C6F3802030B1C4F3800018B9284602F044
:100A1000FAF808E0C4F3800028B1C6F3402010B112
:100A2000284602F0E3F800BF36E7704770B5044689
:100A30000CB9012070BD94F83D0028B9002084F85D
:100A40003C00204600F09AFA242084F83D002068FB
:100A5000006820F00100216808602068006840F408
:100A60000040216808602068006820F40040216888
:100A7000086000F087FC05465C496068884206D83B
:100A80005B48854201D2012007E0002005E059487B
:100A9000854201D2012000E00020012800D1C9E7F1
:100AA0005548B5FBF0F62068406820F03F00304321
:100AB000216848604D496068884201D8701C07E091
:100AC0004FF4967070434FF47A71B0FBF1F0401C14
:100AD0002168096A21F03F010843216808624349FF
:100AE0006068884214D8681E61684900B0FBF1F064
:100AF000401CC0F30B00042801D204203DE0681E16
:100B000061684900B0FBF1F0401CC0F30B0034E019
:100B1000A06838B9681E616801EB4101B0FBF1F0D3
:100B2000401C0AE0681E616801EBC10202EB011182
:100B3000B0FBF1F0401C40F48040C0F30B0008B95A
:100B400001201AE0A06848B9681E616801EB410104
:100B5000B0FBF1F0401CC0F30B000CE0681E6168B4
:100B600001EBC10202EB0111B0FBF1F0401CC0F33C
:100B70000B0040F4804040F400402168C9694CF605
:100B8000FF72914308432168C861D4E90701084313
:100B90002168096821F0C001084321680860D4E990
:100BA000031008432168896848F2FF3291430843E3
:100BB00021688860D4E9050108432168C96821F0EB
:100BC000FF0108432168C8602068006840F0010008
:100BD0002168086000202064202084F83D00002067
:100BE000206384F83E0000BF24E70000A0860100D7
:100BF00080841E0000093D0040420F00704770478E
:100C000070477047704700002DE9FC5F04460F46AF
:100C100090469946DDE90CAB0E9EFFF711FE0546A6
:100C200094F83D0020287DD1192301224D4920460A
:100C3000009502F067F910B10220BDE8FC9F00BFEB
:100C400094F83C00012801D10220F6E7012084F845
:100C50003C0000BF2068006800F0010028B920684F
:100C6000006840F00100216808602068006820F4F6
:100C7000006021680860212084F83D00402084F84D
:100C80003E0000202064C4F824A0A4F82AB0608D9F
:100C900020853548E0624B46424639462046CDE93C
:100CA000006501F033FF08B10120C6E731E02A46B4
:100CB0003146204602F0F4F950B1206C042805D1E9
:100CC0002068006840F40070216808600120B4E7E3
:100CD000606A007821680861606A401C6062208D4B
:100CE000401E2085608D401E608520684069C0F3ED
:100CF000800070B1208D60B1606A00782168086161
:100D0000606A401C6062208D401E2085608D401E00
:100D10006085208D0028CAD12A463146204602F03F
:100D2000C3F800E01CE050B1206C042805D1206815
:100D3000006840F400702168086001207DE72068A9
:100D4000006840F4007021680860202084F83D00AD
:100D5000002084F83E0000BF84F83C0000BF6CE730
:100D600002206AE7020010000000FFFF2DE9FE4F9D
:100D700004460E4617469B46DDE90C89002002908A
:100D8000FFF75EFD824694F83D00202874D1774835
:100D900000681921B0FBF1F04FF47A71B0FBF1F06B
:100DA00000EBC00101EB0010029000BF0298401E52
:100DB0000290029898B900202063202084F83D001A
:100DC000002084F83E00206C40F02000206400BF2A
:100DD000002084F83C0000BF0120BDE8FE8F2068A1
:100DE0008069C0F340000028E0D100BF94F83C00C7
:100DF000012801D10220F0E7012084F83C0000BF67
:100E00002068006800F0010028B92068006840F000
:100E10000100216808602068006820F400602168F3
:100E20000860212084F83D00402084F83E00002026
:100E30002064C4F82480A4F82A90608D20854C4852
:100E4000E062208D00287ED0606BB0B14948616BB4
:100E500088624948616B08630020616BC862616BFE
:100E60004863238DD4F800C00CF11002616A606BF6
:100E7000FFF7FEFA054611E076E0202084F83D00F9
:100E8000002084F83E00206C40F08000206400BF09
:100E9000002084F83C0000BF01209EE7F5BB232022
:100EA0005B463A463146CDE9000A204601F02EFE67
:100EB000B8B1606BFFF77EF905460020616B886270
:100EC0002068006820F48060216808600020208588
:100ED00060852068006820F001002168086001201A
:100EE0007BE700BF002001902068406901902068E6
:100EF0008069019000BF00BF00BF002084F83C0063
:100F000000BF2068406840F4807021684860206815
:100F1000406840F400602168486001E002E012E0AF
:100F200000205AE7202084F83D00002084F83E008D
:100F3000206C40F01000206400BF002084F83C00CA
:100F400000BF012049E7202084F83D00002084F8FC
:100F50003E00206C40F04000206400BF002084F878
:100F60003C0000BF012038E7022036E70C000020DB
:100F70000000FFFF6B2000082520000810B586B098
:100F800004460020029003900490059028492068B0
:100F900088424AD100BF2748806940F008002549AF
:100FA00088610846806900F00800019000BF00BF1A
:100FB000C02002901220039000200490032005908E
:100FC00002A91D48FFF7B6FA00BF1A48C06940F4ED
:100FD00000101849C8610846C06900F4001001906B
:100FE00000BF00BF15481649086010204860002166
:100FF000134881608021C1600021016141618161EC
:101000004FF40051C161FFF7FFF908B1FFF7CFF8C6
:1010100000BF0B486063446200BF002211461F20DE
:1010200000F092F81F2000F07FF806B010BD00001D
:101030000054004000100240000C01406C000240CF
:10104000A0000020704770470348006803490978F2
:101050000844014908607047000000200800002093
:1010600010B50848006840F01000064908600320E9
:1010700000F0A8F80F2000F007F800F02BF800208F
:1010800010BD00000020024070B504460E480078F4
:101090004FF47A71B1FBF0F00C490968B1FBF0F53F
:1010A000284600F0ADFC08B1012070BD102C07D21D
:1010B00000222146501E00F047F80548046001E078
:1010C0000120F2E70020F0E7080000200C000020DB
:1010D0000400002008B500BF1148806940F00100FD
:1010E0000F4988610846806900F00100009000BF48
:1010F00000BF00BF0846C06940F08050C861084684
:10110000C06900F08050009000BF00BF00BF0549DB
:10111000486820F0E06040F00070486000BF08BD03
:10112000001002400000014001460846002809DB8B
:1011300000F01F0301229A4043099B0003F1E023C2
:10114000C3F8002100BF70472DE9F05F80460D46CF
:101150001646002702F016FA074639462A46334655
:1011600001F00700C0F1070ABAF1040F02D94FF0ED
:10117000040A01E0C0F1070AD14600F1040ABAF1FD
:10118000070F02D24FF0000A01E0A0F1030AD44693
:101190004FF0010A0AFA09FAAAF1010A0AEA020A58
:1011A0000AFA0CFA4FF0010B0BFA0CFBABF1010B36
:1011B0000BEA030B4AEA0B042146404602F0EAF927
:1011C000BDE8F09F00BF00F00702064B19684FF61C
:1011D000FF031940044B0B4343EA0221014B196002
:1011E00000BF70470CED00E00000FA0570B5044642
:1011F0000D460CB9012070BD5A48006800F0070088
:10120000A8420ED25748006820F0070028435549ED
:1012100008600846006800F00700A84201D00120DD
:10122000E9E7207800F0020002281DD1207800F0C4
:101230000400042805D14C48406840F4E0604A4965
:101240004860207800F00800082805D1464840682A
:1012500040F46050444948604348406820F0F00042
:10126000A168084340494860207800F0010078B345
:101270006068012806D13C48006800F4003090B94D
:101280000120B8E76068022806D13748006800F0FE
:10129000007040B90120AEE73348006800F002005A
:1012A00008B90120A7E73048406820F003006168D2
:1012B00008432D494860FFF7C3FA064609E0FFF7E7
:1012C000BFFA801B41F28831884202D9032092E79D
:1012D00007E02548406800F00C006168B0EB810F22
:1012E000EDD12048006800F00700A8420ED91D4843
:1012F000006820F0070028431A4908600846006883
:1013000000F00700A84201D0012074E7207800F027
:101310000400042807D11448406820F4E060E16824
:10132000084311494860207800F00800082808D1D7
:101330000D48406820F46050216940EAC1000A4924
:10134000486000F03FF808494968C1F30311074AB3
:10135000515CC8400649086006480068FFF794FEE3
:10136000002048E70020024000100240103C000826
:101370000C000020040000200148006870470000B5
:101380000C00002000B5FFF7F7FF04494968C1F3DE
:101390000221034A515CC84000BD00000010024019
:1013A000203C000800B5FFF7E7FF04494968C1F396
:1013B000C221034A515CC84000BD00000010024039
:1013C000203C0008F0B585B00FF26C0C9CE8E010F2
:1013D00001A8A0E8E0101CA52D68009500210022BE
:1013E000002300240020194D696801F00C05F5B1B7
:1013F000042D02D0082D19D101E0154819E001ADE6
:10140000C1F38346AC5D01F4803555B10F4D6D6875
:10141000C5F340451DF805200D4D6543B5FBF2F3BE
:1014200002E00C4D04FB05F3184602E000BF08483B
:1014300000BF00BF05B0F0BD0203040506070809A0
:101440000A0B0C0D0E0F10100102000000100240DC
:1014500000127A0000093D00F8B504460CB90120DD
:10146000F8BD207800F00100002878D0F8484068E6
:1014700000F00C0004280CD0F548406800F00C0087
:10148000082811D1F248406800F48030B0F5803F60
:101490000AD1EF48006800F4003000285FD060688F
:1014A00000285CD10120DBE700BF6068B0F5803F19
:1014B00006D1E748006840F48030E549086028E03C
:1014C000606858B9E248006820F48030E04908605C
:1014D0000846006820F4802008601AE06068B0F5D3
:1014E000A02F0BD1DA48006840F48020D84908606A
:1014F0000846006840F4803008600AE0D44800687C
:1015000020F48030D24908600846006820F480202A
:10151000086000BF606888B1FFF792F9054606E0F1
:10152000FFF78EF9401B642801D9032098E7C848CB
:10153000006800F400300028F2D010E0FFF780F9D6
:10154000054606E0FFF77CF9401B642801D903201B
:1015500086E7BF48006800F400300028F2D1207808
:1015600000F00200022857D1B948406800F00C0092
:1015700050B1B748406800F00C00082818D1B448B2
:10158000406800F4803098B9B148006800F002006B
:1015900020B12069012801D0012061E7AC48006832
:1015A00020F0F800616940EAC100A949086033E011
:1015B0002069E8B10120A7490860FFF741F9054615
:1015C00006E0FFF73DF9401B022801D9032047E759
:1015D0009F48006800F002000028F2D09C48006894
:1015E00020F0F800616940EAC1009949086013E001
:1015F000002098490860FFF723F9054606E0FFF749
:101600001FF9401B022801D9032029E790480068F0
:1016100000F002000028F2D1207800F0080008282D
:101620002DD1A069B8B101208B490860FFF708F9F6
:10163000054606E0FFF704F9401B022801D9032004
:101640000EE78348406A00F002000028F2D0012033
:1016500001F054FE13E000207F490860FFF7F0F826
:10166000054606E0FFF7ECF8401B022801D90320ED
:10167000F6E67748406A00F002000028F2D12078B0
:1016800000F00400042873D100277148C06900F0FD
:10169000805070B900BF6E48C06940F080506C49FE
:1016A000C8610846C06900F08050009000BF00BFCC
:1016B00001276A48006800F48070B0B96748006884
:1016C00040F4807065490860FFF7BAF8054606E007
:1016D000FFF7B6F8401B642801D90320C0E65F4835
:1016E000006800F480700028F2D000BFE068012894
:1016F00006D15748006A40F001005549086227E0CA
:10170000E06858B95248006A20F001005049086268
:101710000846006A20F00400086219E0E068052825
:101720000BD14B48006A40F0040049490862084662
:10173000006A40F0010008620AE04548006A20F0B3
:101740000100434908620846006A20F0040008626C
:1017500000BFE068A0B1FFF773F8054609E0FFF7A6
:101760006FF8401B41F28831884202D9032077E6A6
:1017700022E03748006A00F002000028EFD012E0B3
:10178000FFF75EF8054608E0FFF75AF8401B41F204
:101790008831884201D9032062E62D48006A00F0B2
:1017A00002000028F0D1012F05D12948C06920F09E
:1017B00080502749C86100BFE069C8B32448406829
:1017C00000F00C00082860D0E069022848D1002011
:1017D00020490866FFF734F8054606E0FFF730F8C1
:1017E000401B022801D903203AE61948006800F09E
:1017F00000700028F2D1206AB0F5803F07D114486C
:10180000406820F40030A168084311494860D4E9D9
:10181000080108430E49496821F4741108430C4932
:10182000486001200B490866FFF70AF8054607E003
:101830003DE0FFF705F8401B022801D903200FE621
:101840000348006800F000700028F2D02FE000008C
:1018500000100240000042428004424200700040FA
:10186000002014490866FEF7EBFF054606E0FEF788
:10187000E7FF401B022801D90320F1E50E4800686C
:1018800000F000700028F2D111E0E069012800D1D9
:10189000E6E50948466806F48031206A814204D1B1
:1018A00006F47011606A814201D00120D8E5002061
:1018B000D6E50000000042420010024010B5044688
:1018C0000CB9012010BD606A38B96068B0F5827F3C
:1018D00000D105E00021E16102E0002121616161A8
:1018E0000021A16294F8510028B9002084F850002A
:1018F000204600F043F8022084F851002068006878
:1019000020F0400021680860A08800F482702189DE
:1019100001F404410843A18901F400610843217CDA
:1019200001F002010843217D01F001010843218BF0
:1019300001F400710843217F01F0380108432021A0
:10194000095D01F080010843218D01F40051084335
:10195000216808600421A06901EA104021684860FC
:101960002068C06920F400602168C86100206065BB
:10197000012084F851000020A4E7000010B586B0D3
:1019800004460020029003900490059019492068B5
:1019900088422DD100BF1848806940F48050164914
:1019A00088610846806900F48050019000BF00BF44
:1019B00000BF0846806940F00400886108468069DD
:1019C00000F00400019000BF00BFA02002900220A0
:1019D00003900320059002A90848FEF7ABFD4020C4
:1019E000029000200390049002A90448FEF7A2FD93
:1019F00006B010BD00300140001002400008014058
:101A000070B504462546681EB0F1807F01D30120E1
:101A10000FE0681E4FF0E02148610F214FF0FF30CA
:101A200001F0B8FD00204FF0E02188610720086137
:101A3000002070BD7047704730B502460B4600BFAE
:101A400092F83C00012801D1022030BD012082F82B
:101A50003C0000BF022082F83D0010684468106816
:101A6000816824F0700418680443106844600E4DC7
:101A70001068A84207D01068B0F1804F03D00B4D1A
:101A80001068A84205D121F0800158680143106810
:101A90008160012082F83D0000BF002082F83C00F8
:101AA00000BF00BFD1E70000002C0140000400404F
:101AB00010B504460CB9012010BD94F83D0028B9BA
:101AC000002084F83C00204600F026F8022084F82C
:101AD0003D00211D206801F067FC012084F84600CC
:101AE00000BF84F83E0001213F20015540200155F0
:101AF0004120015500BF00BF012084F8420043206F
:101B00000155442001554520015500BF012084F8AE
:101B10003D000020D0E7000038B504462068B0F151
:101B2000804F15D100BF0B48C06940F00100094942
:101B3000C8610846C06900F00100009000BF00BF06
:101B4000002211461C20FFF7FFFA1C20FFF7ECFAD9
:101B500038BD0000001002402DE9F04104460D465A
:101B600000BF94F83C00012802D10220BDE8F081BA
:101B7000012084F83C0000BF022084F83D0020686A
:101B8000866826F0770626F47F46206886602868F7
:101B9000502833D00CDC202850D004DC00284BD057
:101BA000102851D149E0302849D040284CD139E0A3
:101BB00060282DD0702807D0B0F5805F03D0B0F535
:101BC000005F41D10DE040E0D5E902136A6820686A
:101BD00001F01CFC2068866846F077062068866065
:101BE00033E0D5E902136A68206801F00FFC206831
:101BF000806840F480402168886026E0EA6869686F
:101C0000206801F017FC5021206801F00AFC1CE05C
:101C1000EA686968206801F020FC6021206801F012
:101C200000FC12E0EA686968206801F003FC4021CA
:101C3000206801F0F6FB08E000BF00BF00BF296884
:101C4000206801F0EEFB00E000BF00BF012084F837
:101C50003D0000BF002084F83C0000BF00BF85E7C6
:101C6000704710B5044620680069C0F34000D8B141
:101C70002068C068C0F34000B0B16FF00200216876
:101C80000861012020772068806900F0030018B106
:101C90002046FFF7E5FF05E0204600F0ADF82046BE
:101CA00000F0ABF80020207720680069C0F38000C6
:101CB000D8B12068C068C0F38000B0B16FF00400F4
:101CC00021680861022020772068806900F4407054
:101CD00018B12046FFF7C4FF05E0204600F08CF85D
:101CE000204600F08AF80020207720680069C0F3C1
:101CF000C000D8B12068C068C0F3C000B0B16FF0B8
:101D0000080021680861042020772068C06900F07D
:101D1000030018B12046FFF7A3FF05E0204600F0BE
:101D20006BF8204600F069F80020207720680069F1
:101D3000C0F30010D8B12068C068C0F30010B0B183
:101D40006FF0100021680861082020772068C069C2
:101D500000F4407018B12046FFF782FF05E02046EE
:101D600000F04AF8204600F048F80020207720686C
:101D7000006900F0010058B12068C06800F001005F
:101D800030B16FF0010021680861204600F036F89C
:101D900020680069C0F3C01058B12068C068C0F363
:101DA000C01030B16FF08000216808612046FFF755
:101DB00041FE20680069C0F3801058B12068C068F7
:101DC000C0F3801030B16FF04000216808612046F8
:101DD00000F015F820680069C0F3401058B1206881
:101DE000C068C0F3401030B16FF020002168086176
:101DF0002046FFF720FE10BD7047704770477047C0
:101E000010B504460CB9012010BDA06900B100E076
:101E100000BF94F83D0028B9002084F83C0020461B
:101E200000F028F8242084F83D002068C06820F4E1
:101E300000502168C860204601F024FB206800693A
:101E400020F49040216808612068406920F02A0051
:101E5000216848612068C06840F400502168C8606B
:101E600000202064202084F83D0084F83E000020FB
:101E7000CAE7000010B586B0044600200290039027
:101E8000049005901A49206888422ED100BF194855
:101E9000806940F48040174988610846806900F4F1
:101EA0008040019000BF00BF00BF0846806940F03D
:101EB000040088610846806900F00400019000BFBA
:101EC00000BF48150290022003900320059002A94C
:101ED0000948FEF72FFB4FF480600290002003902A
:101EE000049002A90448FEF725FB06B010BD0000CF
:101EF00000380140001002400008014000BFFEE72A
:101F000010B50248FEF7A4FC10BD00004C000020F4
:101F1000C16AB1F52A0F02D10121C16205E0C16A8F
:101F2000B1F12A4F01D10821C1627047F8B50546C9
:101F3000002000906C6A94F83D60394800681921CF
:101F4000B0FBF1F04FF47A71B0FBF1F0C0EBC000E0
:101F500000EB8000009000BF009820B9206C40F09A
:101F60002000206409E00098401E0090206800686E
:101F700000F40070B0F5007FEED000BF606B10B1D0
:101F80000020616B8862A06B10B10020A16B886299
:101F90002068006820F48060216808600020608567
:101FA000606B10B10020616B4863A06B10B1002022
:101FB000A16B48632068006820F001002168086078
:101FC00094F83D0060280AD1202084F83D000020CC
:101FD00084F83E0020642046FEF738FC1EE006F040
:101FE0002800282811D12068006840F001002168ED
:101FF00008602068006840F4806021680860002064
:102000002063282084F83D0005E0202084F83D006E
:10201000002084F83E002046FEF707FDF8BD0000D2
:102020000C00002070B505466C6A606B10B1002092
:10203000616B8862A06B10B10020A16B8862206880
:10204000006820F4806021680860002060852020FE
:1020500084F83D00002084F83E00206C40F0100021
:1020600020642046FEF7E1FC70BD2DE9F0410746F3
:102070007C6A94F83D5094F83E80E66A2068406897
:1020800020F4407021684860606B10B10020616BE3
:102090008862A06B10B10020A16B886205F021005E
:1020A000212806D005F02200222826D1B8F1200FE1
:1020B00023D12068406820F4006021684860002037
:1020C0006085292D08D121202063282084F83D0037
:1020D0002046FEF7B8FF09E02A2D07D12220206311
:1020E000282084F83D002046FEF7ACFF20684068B9
:1020F00040F44070216848604DE094F83E000028AC
:1021000049D0608D012805D12068006820F48060E6
:10211000216808602068406820F4407021684860A9
:1021200016F5803F06D0082E04D0B6F12A4F01D014
:10213000202E05D12068006840F4007021680860F6
:102140002068406820F4805021684860206840681A
:1021500020F400602168486000206085206C18B180
:102160002046FEF762FC16E0202084F83D0094F83B
:102170003E00402807D1002084F83E00206320461E
:10218000FEF73FFD07E0002084F83E0012202063A8
:102190002046FEF734FDBDE8F08100002DE9F04156
:1021A000044694F83D6094F83E70102F01D0402F03
:1021B00007D1222E05D12068006820F40060216834
:1021C000086006F02800282805D100202063282078
:1021D00084F83D0010E02068406800F40060B0F52D
:1021E000006F07D0602E05D0202084F83D0000202D
:1021F00084F83E00002020632068406800F40060FE
:10220000B0F5006F40D12068406820F4006021687C
:102210004860606B90F82100012814D04848616B39
:102220004863606BFDF7C6FF00285BD0206800683C
:1022300020F0010021680860202084F83D00606BD8
:10224000416B88474EE03E48A16B4863A06BFDF7A9
:10225000B1FF002846D020684069C0F3801030B13B
:1022600020680069616A0870606A401C60622068CA
:10227000006820F0010021680860202084F83D00FB
:10228000A06B416B88472DE094F83D0060281AD17F
:10229000202084F83D000020206420684069C0F3BD
:1022A000801030B120680069616A0870606A401C63
:1022B00060622068006820F0010021680860204604
:1022C000FEF7C4FA0EE020684069C0F3801030B118
:1022D00020680069616A0870606A401C606220467C
:1022E000FEF7A3FB256C05F0010058B905F00200CC
:1022F000022807D005F00400042803D005F00800E8
:10230000082805D12068406820F4E0602168486012
:1023100094F83D60206C00F0040004280ED1282EB3
:102320000CD10848E06200202063202084F83D00A2
:10233000002084F83E002046FEF760FCBDE8F081F6
:102340002D1F00080000FFFF014608684069C0F328
:102350008020B0B16FF480600A685061002008638B
:10236000202081F83D00002081F83E00086C40F0FC
:102370000400086400BF002081F83C0000BF012079
:1023800070470020FCE770B50446E56A608D0428BC
:1023900010D12068406820F480602168486020687F
:1023A0000069616A0870606A401C6062608D401E4E
:1023B00060857AE0608D03281AD12068406820F497
:1023C000806021684860042D07D0022D05D0206868
:1023D000006820F480602168086020680069616AF4
:1023E0000870606A401C6062608D401E60855CE021
:1023F000608D02284FD1012D01D0102D06D120680B
:10240000006820F480602168086012E0042D01D08B
:10241000022D06D12068006840F4806021680860C1
:1024200007E0102D05D02068006840F40070216896
:10243000086020680069616A0870606A401C606218
:10244000608D401E608520680069616A0870606A5E
:10245000401C6062608D401E60852068406820F4EA
:10246000407021684860202084F83D0094F83E00C8
:10247000402807D1002084F83E0020632046FEF764
:10248000C0FB12E0002084F83E00122020632046AA
:10249000FEF7B5FB09E020680069616A0870606AB0
:1024A000401C6062608D401E608570BD70B5044642
:1024B00094F83D00222869D1658D032D13D9206839
:1024C0000069616A0870606A401C6062608D401E2D
:1024D0006085608D032858D12068406820F48060B2
:1024E0002168486051E0E06A02284ED0012D01D0F9
:1024F000002D4AD1204600F0ABFD68BB2068006883
:1025000020F48060216808602068406820F4E06062
:102510002168486020680069616A0870606A401C30
:102520006062608D401E6085202084F83D0094F834
:102530003E00402807D1002084F83E00206320465A
:10254000FEF75FFB21E0002084F83E0012202063AC
:102550002046FEF754FB18E02068406820F4E06055
:102560002168486020680069616A0870606A401CE0
:102570006062608D401E6085202084F83D00002050
:1025800084F83E002046FEF750FA00BF70BD70B5DB
:102590000446E56A94F83D00212847D1608D50B18A
:1025A000606A007821680861606A401C6062608D22
:1025B000401E60853AE0082D16D0202D14D015F568
:1025C000803F11D02068406820F4E06021684860B6
:1025D00011202063002084F83E00202084F83D0074
:1025E0002046FEF70DFB21E02068406820F4E06003
:1025F000216848602068006840F400702168086025
:1026000000202063202084F83D0094F83E004028FC
:1026100006D1002084F83E002046FEF7F3FA05E0DC
:10262000002084F83E002046FEF7EAFA70BD2DE94E
:10263000F041044694F83D5094F83E70E66A208DCF
:10264000B0BB212D3CD1082E16D0202E14D016F56B
:10265000803F11D02068406820F4E0602168486025
:1026600011202063002084F83E00202084F83D00E3
:102670002046FEF7C5FA44E02068406820F4E06098
:10268000216848602068006840F400702168086094
:1026900000202063202084F83D0094F83E0040286C
:1026A00007D1002084F83E002046FEF7ABFA28E070
:1026B00006E0002084F83E002046FEF7A1FA20E064
:1026C000212D03D0402F1CD1222D1AD1608D30B97D
:1026D0002068406820F480602168486011E094F828
:1026E0003E00402803D1204600F0B1F909E0606ABD
:1026F000007821680861606A401C6062608D401E3D
:102700006085BDE8F081416CC9B202681161416B1E
:1027100011B1416B896A21B9816B41B1816B896AC1
:1027200029B10168496841F400610268516070474D
:1027300038B590F83E20C16A036B90F83D40222CDA
:1027400073D1046D64B9402A0AD100BF00240094FB
:102750000468646900940468A469009400BF26E1D9
:10276000046DC4B90469B4F5404F14D100BF00240E
:1027700000940468646900940468A469009400BF2C
:1027800000BF0468246844F4807405682C60046DFC
:10279000641C04650BE1448D8CB900BF00240094D7
:1027A0000468646900940468A469009400BF00BFD1
:1027B0000468246844F4007405682C60E9E0448DE2
:1027C000012C72D111F5803F30D10468246824F4C3
:1027D000806405682C600468646804F40064B4F5DF
:1027E000006F10D10468246824F4806405682C60AC
:1027F00000BF002400940468646900940468A4691C
:10280000009400BFC5E000BF002400940468646920
:1028100000940468A469009400BF00BF04682468A1
:1028200044F4007405682C60B3E0B5E0082923D0B7
:10283000202921D0122B01D101291DD104290AD030
:10284000022908D0102906D00468246824F4806482
:1028500005682C6005E00468246844F48064056819
:102860002C6000BF0024009404686469009404682C
:10287000A469009400BF8CE00468246824F4806498
:1028800005682C6000BF002400940468646900940B
:102890000468A469009400BF00BF0468246844F47D
:1028A000007405682C6074E0FFE7448D022C47D16A
:1028B00004291BD0022919D0102917D004682468D4
:1028C00044F4006405682C6000BF00240094046890
:1028D000646900940468A469009400BF00BF0468A0
:1028E000246824F4806405682C6010E0046824687F
:1028F00044F4806405682C6000BF002400940468E0
:10290000646900940468A469009400BF00BF04686F
:10291000646804F40064B4F5006F3AD111F5803FA7
:1029200007D0012905D0082903D0102901D020297A
:102930002FD10468646844F4805405686C6028E012
:102940000468246844F4806405682C600468646842
:1029500004F40064B4F5006F10D111F5803F07D086
:10296000012905D0082903D0102901D0202905D13B
:102970000468646844F4805405686C6000BF0024F7
:1029800000940468646900940468A469009400BF1A
:1029900000BF002404650AE000BF0024009404681E
:1029A000646900940468A469009400BF00BF38BD46
:1029B00090F83E1040290ED1016D29B9416C01F00B
:1029C000FE010268116141E0416CC9B241F00101B0
:1029D000026811613AE00169B1F5804F20D190F8A9
:1029E0003D10212905D1416C01F0FE010268116101
:1029F00005E0416CC9B241F0010102681161416B0F
:102A000011B1416B896A21B9816BF9B1816B896A16
:102A1000E1B10168496841F400610268516015E064
:102A2000016D41B9416C01F44071F02242EAE111BB
:102A3000026811610AE0016D012907D1416C01F4BE
:102A40004071F12242EAE11102681161704770B5EC
:102A5000044694F83D50206D98B9E06C012807D1E8
:102A6000A06CC0B221680861206D801C20654CE01C
:102A7000A06CC0F3072021680861206D401C206510
:102A800043E0206D012807D1A06CC0B22168086125
:102A9000206D401C206538E0206D022835D1222DA4
:102AA00009D12068006840F4807021680860206DBA
:102AB000401C206529E0608D60B1212D0AD1606A3B
:102AC000007821680861606A401C6062608D401E69
:102AD00060851AE0608DC0B9212D16D1206840684C
:102AE00020F4E060216848602068006840F40070CD
:102AF0002168086000202063202084F83D00002029
:102B000084F83E002046FEF77DF870BD2DE9F843BD
:102B10000446884615469946DDE90867206800683E
:102B200040F4807021680860334600224FF00111A4
:102B30002046009700F0E6F960B12068006800F4D4
:102B40008070B0F5807F02D14FF4007020640320C4
:102B5000BDE8F88308F0FE00216808613B46324674
:102B60002149204600F011FA08B10120F0E700BF2A
:102B700000200090206840690090206880690090E3
:102B800000BF00BF3A463146204600F089FA50B1F6
:102B9000206C042805D12068006840F4007021688A
:102BA00008600120D4E7B9F1010F03D1E8B2216830
:102BB000086117E0C5F30720216808613A463146ED
:102BC000204600F06DFA50B1206C042805D1206831
:102BD000006840F40070216808600120B8E7E8B29E
:102BE000216808610020B3E702000100418D49B16E
:102BF00001680969426A1170416A491C4162418D4C
:102C0000491E4185704770B5044694F83D50608D6B
:102C1000D8B120680069616A0870606A401C60620F
:102C2000608D401E6085608D78B92A2D0DD1206899
:102C3000406820F4806021684860222020632820BA
:102C400084F83D002046FEF7FDF970BD418D49B185
:102C5000416A097802681161416A491C4162418DEB
:102C6000491E4185704770B5044694F83D50608D0B
:102C7000D8B1606A007821680861606A401C6062AF
:102C8000608D401E6085608D78B9292D0DD120683A
:102C9000406820F48060216848602120206328205B
:102CA00084F83D002046FEF7CEF970BDF8B5044625
:102CB0000D46002794F83D0000F0280028281CD17C
:102CC0002068406820F4806021684860C5F3800077
:102CD00000B90127C5F3C01010B9A08986B201E080
:102CE000208B86B200BF002084F83C0000BF324633
:102CF00039462046FDF7ABFD0FE000BF00200090F5
:102D000020684069009020688069009000BF00BF83
:102D100000BF002084F83C0000BFF8BD38B5044671
:102D200094F83D502068406820F4E06021684860D5
:102D300000BF002000902068406900902068006873
:102D400040F001002168086000BF00BF20680068F3
:102D500020F48060216808602068406800F400600A
:102D6000B0F5006F42D1222D01D02A2D1FD1A06BCA
:102D7000006840686085608D18B1206C40F00400E8
:102D800020642068406820F4006021684860A06BDF
:102D9000FDF768FA012829D04148A16B4863A06B70
:102DA000FDF708FA10B3A06B416B88471EE0606B1B
:102DB000006840686085608D18B1206C40F00400A8
:102DC00020642068406820F4006021684860606BDF
:102DD000FDF748FA012809D03148616B4863606B00
:102DE000FDF7E8F910B1606B416B8847608D18B34F
:102DF00020684069C0F3800048B120680069616ABA
:102E00000870606A401C6062608D401E60852068AA
:102E10004069C0F3801048B120680069616A087099
:102E2000606A401C6062608D401E6085608D18B1D4
:102E3000206C40F004002064206C18B12046FFF79D
:102E4000ADF92BE02A2D07D100202063282084F83B
:102E50003D002046FEF7F6F894F83D0028280DD1F5
:102E60001048E06200202063202084F83D0000200C
:102E700084F83E002046FDF7C1FE0FE0206B2228BB
:102E800001D0222D0AD100202063202084F83D00AB
:102E9000002084F83E002046FEF7D4F838BD00003C
:102EA0002D1F00080000FFFF70B504460D461646B2
:102EB00020E02046FFF748FA08B1012070BD681CE9
:102EC000C0B1FDF7BDFC801BA84200D895B9002019
:102ED0002063202084F83D00002084F83E00206C10
:102EE00040F02000206400BF002084F83C0000BFB8
:102EF0000120E3E720684069C0F380000028D8D0B3
:102F00000020DBE72DE9F04104460D4617461E463A
:102F1000DDF818801CE0701CD0B1FDF791FCA0EB2F
:102F20000800B04200D89EB900202063202084F819
:102F30003D00002084F83E00206C40F0200020641A
:102F400000BF002084F83C0000BF0120BDE8F081F4
:102F5000C5F3074001280AD120684069A9B208409A
:102F6000A9B2884201D101200BE0002009E02068CD
:102F70008069A9B20840A9B2884201D1012000E0CD
:102F80000020B842C7D00020E0E72DE9F041044618
:102F90000D4616461F463DE020684069C0F380207C
:102FA000E8B12068006840F40070216808606FF4A0
:102FB00080602168486100202063202084F83D0063
:102FC000002084F83E00206C40F00400206400BF24
:102FD000002084F83C0000BF0120BDE8F081701C97
:102FE000C0B1FDF72DFCC01BB04200D896B900203F
:102FF0002063202084F83D00002084F83E00206CEF
:1030000040F02000206400BF002084F83C0000BF96
:103010000120E2E7C5F3074001280AD12068406992
:10302000A9B20840A9B2884201D101200BE00020DA
:1030300009E020688069A9B20840A9B2884201D19C
:10304000012000E000200028A6D00020C5E70000F5
:1030500008B5014600200090104800681922B0FB16
:10306000F2F04FF47A72B0FBF2F000EB80000090C7
:1030700000BF0098401E0090009828B9086C40F0EE
:1030800020000864012008BD0868006800F4007092
:10309000B0F5007FEDD00020F5E700000C00002027
:1030A00070B504460D46164620E02046FFF74CF961
:1030B00008B1012070BD681CC0B1FDF7C1FB801BC9
:1030C000A84200D895B900202063202084F83D0054
:1030D000002084F83E00206C40F02000206400BFF7
:1030E000002084F83C0000BF0120E3E7206840692D
:1030F000C0F3C0100028D8D00020DBE708B500BF1F
:103100000A48406940F001000849486108464069A2
:1031100000F00100009000BF00BF00221146102007
:10312000FEF712F81020FDF7FFFF08BD0010024067
:1031300000B585B00020019002900390049000BF7C
:103140002048806940F010001E4988610846806967
:1031500000F01000009000BF00BF00BF084680696B
:1031600040F0200088610846806900F0200000904F
:1031700000BF00BF00BF0846806940F004008861BE
:103180000846806900F00400009000BF00BF00BF47
:103190000846806940F0080088610846806900F0B0
:1031A0000800009000BF00BF44F6024001900020DC
:1031B00002900120039001A90348FDF7BBF905B077
:1031C00000BD000000100240000C014010B50B488B
:1031D0000B4908600B484860002109488160C160C4
:1031E0004FF480410161002141618161C16101624F
:1031F000FDF71CFC08B1FCF7DAFF10BD00540040DD
:103200004C000020801A060010B50E480E490860D8
:103210004FF48270486000210B488160C1600161F9
:1032200041614FF4007181611821C1610021016287
:10323000416281620A21C162FEF740FB08B1FCF7DE
:10324000B6FF10BD00300140E400002000B587B09B
:1032500000200390049005900690019002904FF09A
:1032600080401449086000204860002111488160B6
:103270004FF6FF71C160002101618161FEF718FC0A
:1032800008B1FCF794FF4FF48050039003A909485C
:10329000FEF762FC08B1FCF78AFF00200190029063
:1032A00001A90448FEF7C8FB08B1FCF780FF07B08E
:1032B00000BD00003C01002010B50B480B49086020
:1032C0004FF4E1304860002108488160C16001612D
:1032D0000C21416100218161C161FEF791FD08B1BE
:1032E000FCF765FF10BD000000380140840100209C
:1032F00000BFFEE700BFFEE77047000008B50849C1
:103300000968C9084FF47A72B1FBF2F141430091A8
:1033100000BF00BF00994A1E00920029F9D108BDE4
:103320000C000020704710B5FDF78EFE10BD00B5F3
:103330008FB0282105A8FCF7FCFE14216846FCF795
:10334000F8FE01200590000406900020079001205F
:10335000099002200C90C1030D914FF4E0110E91E1
:1033600005A8FEF779F808B1FCF721FF0F200090BF
:1033700002200190002002904FF480600390002012
:10338000049002216846FDF731FF08B1FCF70FFFFA
:103390000FB000BD7047000010B50248FEF761FC99
:1033A00010BD00003C01002010B50268154B98428A
:1033B00005D0B0F1804F02D0134B984203D122F0D8
:1033C00070024B681A430F4B984205D0B0F1804F02
:1033D00002D00D4B984203D122F44072CB681A43BD
:1033E00022F080034C6943EA040202608B68C362E6
:1033F0000B688362034B984201D10B69036301237D
:10340000436110BD002C01400004004030B50C4663
:10341000816821F47F4142EA0325254329438160E5
:1034200030BD0A46816821F0700142F0070319435C
:103430008160704730B50B461446026A056A25F074
:1034400001050562816921F0F00141EA041122F0D1
:103450000A021A438161026230BD30B50B46144640
:10346000056A25F0100505628169026A21F4704140
:1034700041EA043122F0A00242EA031281610262B1
:1034800030BD000070B504462168096921F440513F
:10349000E2681143226811612269A16811436269DF
:1034A00041EA02052168C96841F20C62914329434F
:1034B0002268D1602168496921F44071A2691143F1
:1034C000226851612D4A2168914202D1FDF76AFFBD
:1034D00001E0FDF757FF00EBC00101EB001162684E
:1034E0009200B1FBF2F100EBC00202EB0012636844
:1034F0009B00B2FBF3F26423B2FBF3F202EBC203D4
:1035000003EB0212A1EB8201322202EB01116422D1
:10351000B1FBF2F101F0F00100EBC00202EB00128E
:1035200063689B00B2FBF3F26423B2FBF3F201EB9E
:10353000021200EBC00101EB001163689B00B1FBBC
:10354000F3F100EBC00303EB00136668B600B3FBB6
:10355000F6F36426B3FBF6F303EBC30606EB0313A3
:10356000A1EB8301322303EB01116423B1FBF3F1DF
:1035700001F00F0111442268916070BD00380140D4
:1035800000BFFEE702480068C0F302207047000059
:103590000CED00E010B5002804DB0A07130E054A05
:1035A000135406E00A07140E034A00F00F031B1F12
:1035B000D45410BD00E400E018ED00E002E008C8BB
:1035C000121F08C1002AFAD170477047002001E09D
:1035D00001C1121F002AFBD17047000038B5FFF768
:1035E000A7FDFFF78BFDFFF7F1FDFFF72FFEFFF7BC
:1035F00063FE0B4800F08AF80948806B01680848B0
:1036000088470C2000900648806B06A300221146D4
:10361000C4690348A0474FF4FA70FCF777FF38BD40
:103620001000002068656C6C6F000000FDF718FD4D
:10363000FFF77DFEFFF7D2FF1BE00E48806B016AAB
:103640000C4888470B48806B416A0A4888474FF40A
:103650004870FCF75BFF0748806B41680548884766
:103660000448806B416A034888474FF44870FCF770
:103670004DFFE2E71000002010B5044694F8240046
:1036800038B9E18C206AFCF754FD012084F824004D
:1036900006E0E18CE069FCF74CFD002084F8240092
:1036A000207D0022B021E36A9847207D0022114648
:1036B000E36A9847207D00221021E36A984710BDF5
:1036C00010B5044694F8240040B9E18CFF22206A2A
:1036D000FCF728FD012084F8240007E0E18CFF229C
:1036E000E069FCF71FFD002084F82400207D002203
:1036F000B021E36A9847207D00221146E36A98478B
:10370000207D00221021E36A984710BD0B490C4A26
:1037100011600C4951600C4991600C49D1600C4911
:1037200011610C4951610C4991610C49D1610C49FD
:1037300011620C495162114681637047B13700082C
:10374000C8010020793600088B3900086937000865
:10375000ED3800087D3A0008BD3900080D3B00082F
:10376000C13600083739000870B504460D467DB1F2
:10377000207D00228D21E36A9847207D00221421BC
:10378000E36A9847207D0022AF21E36A98470EE064
:10379000207D00228D21E36A9847207D00221021A0
:1037A000E36A9847207D0022AE21E36A984770BD06
:1037B00010B50446A06A8047002004E0FF214A4A71
:1037C0001154411C88B2B0F5806FF7DBC820616BE3
:1037D0008847207D0022AE21E36A9847207D0022A1
:1037E0002021E36A9847207D00221146E36A98472A
:1037F000207D00221146E36A9847207D0022102197
:10380000E36A9847207D00224021E36A9847207DA3
:103810000022B021E36A9847207D00228121E36ADB
:103820009847207D0022FF21E36A9847207D0022EF
:10383000A121E36A9847207D0022A621E36A9847E8
:10384000207D0022A821E36A9847207D00223F21A5
:10385000E36A9847207D0022C821E36A9847207DCB
:103860000022D321E36A9847207D00221146E36AB3
:103870009847207D0022D821E36A9847207D0022C6
:103880000521E36A9847207D0022D921E36A984701
:10389000207D0022F121E36A9847207D0022DA2171
:1038A000E36A9847207D00221221E36A9847207D31
:1038B0000022DB21E36A9847207D00223021E36A61
:1038C0009847207D00228D21E36A9847207D0022C1
:1038D0001421E36A9847207D0022AF21E36A9847CC
:1038E0002046FFF7C9FE10BDF001002070B5044668
:1038F00000251DE005F1B002D1B2207D0022E36A6F
:103900009847207D00221146E36A9847207D0022D7
:103910001021E36A9847002606E0207D0122114627
:10392000E36A9847701CC6B2802EF6DB681CC5B2ED
:10393000082DDFDB70BD70B50446207D0022B0216C
:10394000E36A9847207D00221146E36A9847207D6C
:1039500000221021E36A984794F8240050B901200E
:1039600084F8240094F82630207D0122256BE1693B
:10397000A84709E0012084F8240094F82630207D2F
:103980000122256B216AA84770BD70B504460D461B
:10399000164606F1B002D1B2207D0022E36A9847B4
:1039A000102242EA1511207D0022E36A984705F0B3
:1039B0000F01207D0022E36A984770BD2DE9F04792
:1039C0000546884617469946DDF820A000260024C3
:1039D000A9F12000C6B2B8F17F0F02DDA046B81CE5
:1039E000C7B2BAF1100F2CD13A4641462846FFF72C
:1039F000CCFF00240BE004EB0612DFF878C01CF8C3
:103A00000210287D0122EB6A9847601CC4B2082C82
:103A1000F1DB781CC2B241462846FFF7B6FF00240E
:103A20000CE004EB06120832DFF848C01CF8021064
:103A3000287D0122EB6A9847601CC4B2082CF0DB99
:103A400015E03A4641462846FFF79FFF00240CE068
:103A500006EB4602DFF820C00CEB4202115D287D28
:103A60000122EB6A9847601CC4B2062CF0DBBDE86B
:103A7000F0870000503E0008283C00082DE9FF4F69
:103A800083B082460E469946DDE91074002002900C
:103A9000002536E0781B401EC1B20A2000F057F81E
:103AA000B9FBF0F00A21B0FBF1F201FB1208029819
:103AB000A8B9781EA84212DDB8F1000F0DD1A346B7
:103AC00004EBDB70401000FB0560C1B220230094C2
:103AD0005046059AFFF772FF11E001200290A346BD
:103AE00004EBDB70401000FB0560C1B208F1300050
:103AF000C3B200945046059AFFF760FF00BF681CF0
:103B0000C5B2BD42C6DB07B0BDE8F08F2DE9F84372
:103B100080460C4617461D46DDF82090002611E031
:103B2000CDF80090AB5D3A4621464046FFF746FF90
:103B300004F10800C4B2782C02DD0024B81CC7B21E
:103B4000701CC6B2A85D0028EAD1BDE8F88310B5A4
:103B500002460B46012100E05143181EA3F1010467
:103B6000E3B2F9D1C8B210BD10B5FFF74DFB10BDDF
:103B700037B584B0044615467DB14FF480700121FD
:103B800005AA0B46CDE900210290402221460A48B1
:103B9000FDF73AF840B207B030BD4FF48070012114
:103BA00005AA0B46CDE900210290002221460248D9
:103BB000FDF72AF840B2EEE74C0000202DE9FC4169
:103BC00005460C4616461F467EB100BF0F4890F8CA
:103BD0003D002028FAD14001012340222946CDE9A9
:103BE00000400A48FDF7C2F80EE000BF074890F811
:103BF0003D002028FAD14001012300222946CDE9C9
:103C000000400248FDF7B2F8BDE8FC814C000020FE
:103C1000000000000000000001020304060708097C
:103C2000000000000102030400000000000000008A
:103C3000002F000000000700070000147F147F140D
:103C400000242A7F2A120062640813230036495593
:103C5000225000000503000000001C22410000006B
:103C600041221C000014083E08140008083E080801
:103C7000000000A06000000808080808000060605C
:103C80000000002010080402003E5149453E00009B
:103C9000427F4000004261514946002141454B317D
:103CA000001814127F10002745454539003C4A4949
:103CB00049300001710905030036494949360006BB
:103CC0004949291E00003636000000005636000023
:103CD000000814224100001414141414000041229E
:103CE000140800020151090600324959513E007C76
:103CF0001211127C007F49494936003E4141412260
:103D0000007F4141221C007F49494941007F090948
:103D10000901003E4149497A007F0808087F0000F8
:103D2000417F4100002040413F01007F08142241B3
:103D3000007F40404040007F020C027F007F04086B
:103D4000107F003E4141413E007F09090906003EC7
:103D50004151215E007F09192946004649494931F0
:103D60000001017F0101003F4040403F001F204013
:103D7000201F003F4038403F0063140814630007D1
:103D80000870080700615149454300007F41410028
:103D900000552A552A55000041417F0000040201C8
:103DA00002040040404040400000010204000020A6
:103DB00054545478007F48444438003844444420E4
:103DC00000384444487F00385454541800087E0991
:103DD00001020018A4A4A47C007F08040478000059
:103DE000447D4000004080847D00007F1028440016
:103DF0000000417F4000007C04180478007C080427
:103E0000047800384444443800FC24242418001862
:103E1000242418FC007C080404080048545454204E
:103E200000043F444020003C4040207C001C2040D7
:103E3000201C003C4030403C004428102844001C1A
:103E4000A0A0A07C004464544C4414141414141412
:103E50000000000000000000000000000000000062
:103E6000000000F8000000000000003330000000F7
:103E700000100C06100C06000000000000000000FE
:103E800040C07840C0784000043F04043F04040070
:103E9000007088FC08300000001820FF211E000080
:103EA000F008F000E018000000211C031E211E0095
:103EB00000F00888700000001E212324192721101B
:103EC00010160E00000000000000000000000000BE
:103ED000000000E018040200000000071820400065
:103EE00000020418E0000000004020180700000055
:103EF000404080F0804040000202010F01020200B9
:103F0000000000F0000000000101011F010101009C
:103F1000000000000000000080B070000000000001
:103F2000000000000000000000010101010101018A
:103F30000000000000000000003030000000000021
:103F400000000000806018040060180601000000F6
:103F500000E010080810E000000F102020100F00F3
:103F6000001010F8000000000020203F202000007A
:103F700000700808088870000030282422213000D2
:103F800000300888884830000018202020110E00DA
:103F90000000C02010F8000000070424243F240083
:103FA00000F80888880808000019212020110E0058
:103FB00000E0108888180000000F112020110E006A
:103FC00000380808C83808000000003F0000000062
:103FD0000070880808887000001C222121221C0023
:103FE00000E010080810E0000000312222110F004C
:103FF000000000C0C00000000000003030000000E1
:104000000000008000000000000080600000000050
:104010000000804020100800000102040810200069
:1040200040404040404040000404040404040400B4
:104030000008102040800000002010080402010049
:10404000007048080808F000000000303601000049
:10405000C030C828E810E0000718272423140B00FC
:104060000000C038E0000000203C23020227382076
:1040700008F8888888700000203F202020110E005A
:10408000C030080808083800071820202010080051
:1040900008F808080810E000203F202020100F003A
:1040A00008F88888E8081000203F20202320180006
:1040B00008F88888E8081000203F2000030000006E
:1040C000C03008080838000007182020221E02000F
:1040D00008F808000008F808203F210101213F20CE
:1040E000000808F8080800000020203F20200000F9
:1040F00000000808F8080800C08080807F000000E9
:1041000008F888C028180800203F20012638200021
:1041100008F8080000000000203F20202020300088
:1041200008F8F800F8F80800203F003F003F2000A2
:1041300008F830C00008F808203F200007183F00AA
:10414000E01008080810E0000F10202020100F00D9
:1041500008F808080808F000203F210101010000CC
:10416000E01008080810E0000F18242438504F0011
:1041700008F8888888887000203F2000030C3020D1
:1041800000708808080838000038202121221C000F
:10419000180808F8080818000000203F2000000058
:1041A00008F808000008F808001F202020201F0041
:1041B0000878880000C83808000007380E010000A1
:1041C000F80800F80008F800033C0700073C03006B
:1041D000081868808068180820302C03032C3020D1
:1041E0000838C800C83808000000203F2000000040
:1041F00010080808C8380800203826212020180098
:10420000000000FE020202000000007F404040006B
:10421000000C30C000000000000000010638C000A3
:1042200000020202FE000000004040407F0000004B
:104230000000040202020400000000000000000070
:10424000000000000000000080808080808080806E
:104250000002020400000000000000000000000056
:1042600000008080808000000019242222223F204C
:1042700008F8008080000000003F112020110E008F
:104280000000008080800000000E1120202011001E
:10429000000000808088F800000E112020103F20D0
:1042A0000000808080800000001F22222222130054
:1042B000008080F0888888180020203F202000009F
:1042C0000000808080808000006B94949493600054
:1042D00008F8008080800000203F210000203F205F
:1042E00000809898000000000020203F202000005F
:1042F000000000809898000000C08080807F00004F
:1043000008F8000080808000203F24022D3020002B
:10431000000808F8000000000020203F20200000D6
:104320008080808080808000203F20003F20003FF0
:104330008080008080800000203F210000203F20FE
:104340000000808080800000001F202020201F00AF
:10435000808000808000000080FFA12020110E00DE
:104360000000008080808000000E112020A0FF80CF
:10437000808080008080800020203F21200001007C
:1043800000008080808080000033242424241900D1
:10439000008080E0808000000000001F20200000DE
:1043A0008080000000808000001F202020103F201F
:1043B000808080000080808000010E3008060100AF
:1043C00080800080008080800F300C030C300F0054
:1043D00000808000808080000020312E0E3120007F
:1043E000808080000080808080818E7018060100AF
:1043F00000808080808080000021302C22213000CD
:1044000000000000807C020200000000003F4040ED
:1044100000000000FF00000000000000FF0000009E
:104420000002027C800000000040403F00000000CD
:104430000006010102020404000000000000000068
:1044400060440008000000204C000000BC3500085B
:10445000AC4400084C000020A4150000CC35000836
:104460000000000010000000010000000024F40023
:10447000535344313330365F302E3936000000005C
:10448000000000007800800040000000F0090020DB
:10449000F00D002000000004693B0008713B00089B
:0C44A000BD3B00080D05000800000000F6
:04000005080000ED02
:00000001FF
